{
  "_format": "hh3-artifact-1",
  "contractName": "ExecSwap",
  "sourceName": "contracts/ExecSwap.sol",
  "abi": [
    {
      "inputs": [],
      "stateMutability": "nonpayable",
      "type": "constructor"
    },
    {
      "inputs": [
        {
          "internalType": "address",
          "name": "owner",
          "type": "address"
        }
      ],
      "name": "OwnableInvalidOwner",
      "type": "error"
    },
    {
      "inputs": [
        {
          "internalType": "address",
          "name": "account",
          "type": "address"
        }
      ],
      "name": "OwnableUnauthorizedAccount",
      "type": "error"
    },
    {
      "anonymous": false,
      "inputs": [
        {
          "indexed": false,
          "internalType": "bytes32[]",
          "name": "added",
          "type": "bytes32[]"
        },
        {
          "indexed": false,
          "internalType": "bytes32[]",
          "name": "removed",
          "type": "bytes32[]"
        }
      ],
      "name": "CommitmentsUpdated",
      "type": "event"
    },
    {
      "anonymous": false,
      "inputs": [
        {
          "indexed": true,
          "internalType": "address",
          "name": "from",
          "type": "address"
        },
        {
          "indexed": true,
          "internalType": "address",
          "name": "token",
          "type": "address"
        },
        {
          "indexed": false,
          "internalType": "uint256",
          "name": "amount",
          "type": "uint256"
        },
        {
          "indexed": false,
          "internalType": "bytes32",
          "name": "ownerhash",
          "type": "bytes32"
        },
        {
          "indexed": false,
          "internalType": "bytes32",
          "name": "commitmentHash",
          "type": "bytes32"
        }
      ],
      "name": "Deposit",
      "type": "event"
    },
    {
      "anonymous": false,
      "inputs": [
        {
          "indexed": true,
          "internalType": "address",
          "name": "previousOwner",
          "type": "address"
        },
        {
          "indexed": true,
          "internalType": "address",
          "name": "newOwner",
          "type": "address"
        }
      ],
      "name": "OwnershipTransferred",
      "type": "event"
    },
    {
      "anonymous": false,
      "inputs": [
        {
          "indexed": true,
          "internalType": "address",
          "name": "to",
          "type": "address"
        },
        {
          "indexed": true,
          "internalType": "address",
          "name": "token",
          "type": "address"
        },
        {
          "indexed": false,
          "internalType": "uint256",
          "name": "amount",
          "type": "uint256"
        },
        {
          "indexed": false,
          "internalType": "bytes32",
          "name": "ownerhash",
          "type": "bytes32"
        }
      ],
      "name": "Withdraw",
      "type": "event"
    },
    {
      "inputs": [
        {
          "internalType": "uint256",
          "name": "amount",
          "type": "uint256"
        },
        {
          "internalType": "address",
          "name": "token",
          "type": "address"
        },
        {
          "internalType": "bytes32",
          "name": "ownerhash",
          "type": "bytes32"
        }
      ],
      "name": "commitmentOf",
      "outputs": [
        {
          "internalType": "bytes32",
          "name": "",
          "type": "bytes32"
        }
      ],
      "stateMutability": "pure",
      "type": "function"
    },
    {
      "inputs": [
        {
          "internalType": "bytes32",
          "name": "",
          "type": "bytes32"
        }
      ],
      "name": "commitments",
      "outputs": [
        {
          "internalType": "bool",
          "name": "",
          "type": "bool"
        }
      ],
      "stateMutability": "view",
      "type": "function"
    },
    {
      "inputs": [
        {
          "internalType": "address",
          "name": "token",
          "type": "address"
        },
        {
          "internalType": "uint256",
          "name": "amount",
          "type": "uint256"
        },
        {
          "internalType": "bytes32",
          "name": "ownerhash",
          "type": "bytes32"
        }
      ],
      "name": "depositAndCommit",
      "outputs": [],
      "stateMutability": "nonpayable",
      "type": "function"
    },
    {
      "inputs": [
        {
          "internalType": "bytes32",
          "name": "commitment",
          "type": "bytes32"
        }
      ],
      "name": "isCommitmentSpent",
      "outputs": [
        {
          "internalType": "bool",
          "name": "",
          "type": "bool"
        }
      ],
      "stateMutability": "view",
      "type": "function"
    },
    {
      "inputs": [
        {
          "internalType": "bytes32",
          "name": "commitment",
          "type": "bytes32"
        }
      ],
      "name": "isCommitmentStored",
      "outputs": [
        {
          "internalType": "bool",
          "name": "",
          "type": "bool"
        }
      ],
      "stateMutability": "view",
      "type": "function"
    },
    {
      "inputs": [],
      "name": "owner",
      "outputs": [
        {
          "internalType": "address",
          "name": "",
          "type": "address"
        }
      ],
      "stateMutability": "view",
      "type": "function"
    },
    {
      "inputs": [],
      "name": "renounceOwnership",
      "outputs": [],
      "stateMutability": "nonpayable",
      "type": "function"
    },
    {
      "inputs": [
        {
          "internalType": "bytes32",
          "name": "",
          "type": "bytes32"
        }
      ],
      "name": "spent",
      "outputs": [
        {
          "internalType": "bool",
          "name": "",
          "type": "bool"
        }
      ],
      "stateMutability": "view",
      "type": "function"
    },
    {
      "inputs": [
        {
          "internalType": "address",
          "name": "newOwner",
          "type": "address"
        }
      ],
      "name": "transferOwnership",
      "outputs": [],
      "stateMutability": "nonpayable",
      "type": "function"
    },
    {
      "inputs": [
        {
          "internalType": "bytes32[]",
          "name": "newCommitments",
          "type": "bytes32[]"
        },
        {
          "internalType": "bytes32[]",
          "name": "nullifyCommitments",
          "type": "bytes32[]"
        }
      ],
      "name": "updateCommitment",
      "outputs": [],
      "stateMutability": "nonpayable",
      "type": "function"
    },
    {
      "inputs": [
        {
          "internalType": "uint256[]",
          "name": "amounts",
          "type": "uint256[]"
        },
        {
          "internalType": "address",
          "name": "token",
          "type": "address"
        },
        {
          "internalType": "bytes32[]",
          "name": "ownerhashes",
          "type": "bytes32[]"
        },
        {
          "internalType": "bytes",
          "name": "ownerPk",
          "type": "bytes"
        },
        {
          "internalType": "address",
          "name": "to",
          "type": "address"
        }
      ],
      "name": "withdraw",
      "outputs": [],
      "stateMutability": "nonpayable",
      "type": "function"
    }
  ],
  "bytecode": "0x60806040526001600355348015610014575f5ffd5b50335f73ffffffffffffffffffffffffffffffffffffffff168173ffffffffffffffffffffffffffffffffffffffff1603610086575f6040517f1e4fbdf700000000000000000000000000000000000000000000000000000000815260040161007d919061019b565b60405180910390fd5b6100958161009b60201b60201c565b506101b4565b5f5f5f9054906101000a900473ffffffffffffffffffffffffffffffffffffffff169050815f5f6101000a81548173ffffffffffffffffffffffffffffffffffffffff021916908373ffffffffffffffffffffffffffffffffffffffff1602179055508173ffffffffffffffffffffffffffffffffffffffff168173ffffffffffffffffffffffffffffffffffffffff167f8be0079c531659141344cd1fd0a4f28419497f9722a3daafe3b4186f6b6457e060405160405180910390a35050565b5f73ffffffffffffffffffffffffffffffffffffffff82169050919050565b5f6101858261015c565b9050919050565b6101958161017b565b82525050565b5f6020820190506101ae5f83018461018c565b92915050565b611dc8806101c15f395ff3fe608060405234801561000f575f5ffd5b50600436106100a7575f3560e01c80638da5cb5b1161006f5780638da5cb5b1461013957806397efc1de14610157578063ae20bed314610187578063d71ab2f2146101b7578063e1e80c63146101e7578063f2fde38b14610217576100a7565b806312070ab9146100ab5780634d722052146100c75780636ccd91c6146100e3578063715018a6146100ff578063839df94514610109575b5f5ffd5b6100c560048036038101906100c09190610fc3565b610233565b005b6100e160048036038101906100dc9190611101565b610459565b005b6100fd60048036038101906100f891906111fb565b610742565b005b610107610c92565b005b610123600480360381019061011e91906112d2565b610ca5565b6040516101309190611317565b60405180910390f35b610141610cc2565b60405161014e919061133f565b60405180910390f35b610171600480360381019061016c91906112d2565b610ce9565b60405161017e9190611317565b60405180910390f35b6101a1600480360381019061019c91906112d2565b610d0f565b6040516101ae9190611317565b60405180910390f35b6101d160048036038101906101cc9190611358565b610d2c565b6040516101de91906113b7565b60405180910390f35b61020160048036038101906101fc91906112d2565b610d61565b60405161020e9190611317565b60405180910390f35b610231600480360381019061022c91906113d0565b610d87565b005b61023b610e0b565b5f5f90505b84849050811015610340575f85858381811061025f5761025e6113fb565b5b9050602002013590505f5f1b81036102ac576040517f08c379a00000000000000000000000000000000000000000000000000000000081526004016102a390611482565b60405180910390fd5b60015f8281526020019081526020015f205f9054906101000a900460ff161561030a576040517f08c379a0000000000000000000000000000000000000000000000000000000008152600401610301906114ea565b60405180910390fd5b6001805f8381526020019081526020015f205f6101000a81548160ff021916908315150217905550508080600101915050610240565b505f5f90505b828290508110156104155760015f848484818110610367576103666113fb565b5b9050602002013581526020019081526020015f205f9054906101000a900460ff166103c7576040517f08c379a00000000000000000000000000000000000000000000000000000000081526004016103be90611552565b60405180910390fd5b5f60015f8585858181106103de576103dd6113fb565b5b9050602002013581526020019081526020015f205f6101000a81548160ff0219169083151502179055508080600101915050610346565b507fb25265f41c9f8acb8ed2ea9d86b52d54ffc58177a57932014b0875427e75ee7d8484848460405161044b94939291906115e8565b60405180910390a150505050565b60016003541461049e576040517f08c379a00000000000000000000000000000000000000000000000000000000081526004016104959061166b565b60405180910390fd5b60026003819055505f82116104e8576040517f08c379a00000000000000000000000000000000000000000000000000000000081526004016104df906116d3565b60405180910390fd5b5f73ffffffffffffffffffffffffffffffffffffffff168373ffffffffffffffffffffffffffffffffffffffff1603610556576040517f08c379a000000000000000000000000000000000000000000000000000000000815260040161054d9061173b565b60405180910390fd5b5f8373ffffffffffffffffffffffffffffffffffffffff166323b872dd3330866040518463ffffffff1660e01b815260040161059493929190611768565b6020604051808303815f875af11580156105b0573d5f5f3e3d5ffd5b505050506040513d601f19601f820116820180604052508101906105d491906117c7565b905080610616576040517f08c379a000000000000000000000000000000000000000000000000000000000815260040161060d9061183c565b60405180910390fd5b5f83858460405160200161062c939291906118df565b60405160208183030381529060405280519060200120905060015f8281526020019081526020015f205f9054906101000a900460ff16156106a2576040517f08c379a000000000000000000000000000000000000000000000000000000000815260040161069990611965565b60405180910390fd5b6001805f8381526020019081526020015f205f6101000a81548160ff0219169083151502179055508473ffffffffffffffffffffffffffffffffffffffff163373ffffffffffffffffffffffffffffffffffffffff167fdc8a127c2c74575ba755986233b65f171304045889eb6b3ce5342d82140de79e86868560405161072b93929190611983565b60405180910390a350506001600381905550505050565b600160035414610787576040517f08c379a000000000000000000000000000000000000000000000000000000000815260040161077e9061166b565b60405180910390fd5b60026003819055508484905088889050146107d7576040517f08c379a00000000000000000000000000000000000000000000000000000000081526004016107ce90611a02565b60405180910390fd5b5f888890501161081c576040517f08c379a000000000000000000000000000000000000000000000000000000000815260040161081390611a6a565b60405180910390fd5b5f73ffffffffffffffffffffffffffffffffffffffff168673ffffffffffffffffffffffffffffffffffffffff160361088a576040517f08c379a00000000000000000000000000000000000000000000000000000000081526004016108819061173b565b60405180910390fd5b5f73ffffffffffffffffffffffffffffffffffffffff168173ffffffffffffffffffffffffffffffffffffffff16036108f8576040517f08c379a00000000000000000000000000000000000000000000000000000000081526004016108ef90611ad2565b60405180910390fd5b5f8383604051610909929190611b2c565b604051809103902090505f5f90505f5f90505b8a8a9050811015610b15575f8b8b8381811061093b5761093a6113fb565b5b9050602002013590505f898984818110610958576109576113fb565b5b9050602002013590505f82116109a3576040517f08c379a000000000000000000000000000000000000000000000000000000000815260040161099a906116d3565b60405180910390fd5b8481146109e5576040517f08c379a00000000000000000000000000000000000000000000000000000000081526004016109dc90611b8e565b60405180910390fd5b5f828c836040516020016109fb939291906118df565b60405160208183030381529060405280519060200120905060015f8281526020019081526020015f205f9054906101000a900460ff16610a70576040517f08c379a0000000000000000000000000000000000000000000000000000000008152600401610a6790611552565b60405180910390fd5b60025f8281526020019081526020015f205f9054906101000a900460ff1615610ace576040517f08c379a0000000000000000000000000000000000000000000000000000000008152600401610ac590611bf6565b60405180910390fd5b600160025f8381526020019081526020015f205f6101000a81548160ff0219169083151502179055508285610b039190611c41565b9450505050808060010191505061091c565b505f8111610b58576040517f08c379a0000000000000000000000000000000000000000000000000000000008152600401610b4f90611cbe565b60405180910390fd5b5f8873ffffffffffffffffffffffffffffffffffffffff1663a9059cbb85846040518363ffffffff1660e01b8152600401610b94929190611cdc565b6020604051808303815f875af1158015610bb0573d5f5f3e3d5ffd5b505050506040513d601f19601f82011682018060405250810190610bd491906117c7565b905080610c16576040517f08c379a0000000000000000000000000000000000000000000000000000000008152600401610c0d90611d4d565b60405180910390fd5b8873ffffffffffffffffffffffffffffffffffffffff168473ffffffffffffffffffffffffffffffffffffffff167f6000e90278b62c00aaaf621956141fad63f2be8860557c31de1f736cafae29168486604051610c75929190611d6b565b60405180910390a350505060016003819055505050505050505050565b610c9a610e0b565b610ca35f610e92565b565b6001602052805f5260405f205f915054906101000a900460ff1681565b5f5f5f9054906101000a900473ffffffffffffffffffffffffffffffffffffffff16905090565b5f60025f8381526020019081526020015f205f9054906101000a900460ff169050919050565b6002602052805f5260405f205f915054906101000a900460ff1681565b5f838383604051602001610d42939291906118df565b6040516020818303038152906040528051906020012090509392505050565b5f60015f8381526020019081526020015f205f9054906101000a900460ff169050919050565b610d8f610e0b565b5f73ffffffffffffffffffffffffffffffffffffffff168173ffffffffffffffffffffffffffffffffffffffff1603610dff575f6040517f1e4fbdf7000000000000000000000000000000000000000000000000000000008152600401610df6919061133f565b60405180910390fd5b610e0881610e92565b50565b610e13610f53565b73ffffffffffffffffffffffffffffffffffffffff16610e31610cc2565b73ffffffffffffffffffffffffffffffffffffffff1614610e9057610e54610f53565b6040517f118cdaa7000000000000000000000000000000000000000000000000000000008152600401610e87919061133f565b60405180910390fd5b565b5f5f5f9054906101000a900473ffffffffffffffffffffffffffffffffffffffff169050815f5f6101000a81548173ffffffffffffffffffffffffffffffffffffffff021916908373ffffffffffffffffffffffffffffffffffffffff1602179055508173ffffffffffffffffffffffffffffffffffffffff168173ffffffffffffffffffffffffffffffffffffffff167f8be0079c531659141344cd1fd0a4f28419497f9722a3daafe3b4186f6b6457e060405160405180910390a35050565b5f33905090565b5f5ffd5b5f5ffd5b5f5ffd5b5f5ffd5b5f5ffd5b5f5f83601f840112610f8357610f82610f62565b5b8235905067ffffffffffffffff811115610fa057610f9f610f66565b5b602083019150836020820283011115610fbc57610fbb610f6a565b5b9250929050565b5f5f5f5f60408587031215610fdb57610fda610f5a565b5b5f85013567ffffffffffffffff811115610ff857610ff7610f5e565b5b61100487828801610f6e565b9450945050602085013567ffffffffffffffff81111561102757611026610f5e565b5b61103387828801610f6e565b925092505092959194509250565b5f73ffffffffffffffffffffffffffffffffffffffff82169050919050565b5f61106a82611041565b9050919050565b61107a81611060565b8114611084575f5ffd5b50565b5f8135905061109581611071565b92915050565b5f819050919050565b6110ad8161109b565b81146110b7575f5ffd5b50565b5f813590506110c8816110a4565b92915050565b5f819050919050565b6110e0816110ce565b81146110ea575f5ffd5b50565b5f813590506110fb816110d7565b92915050565b5f5f5f6060848603121561111857611117610f5a565b5b5f61112586828701611087565b9350506020611136868287016110ba565b9250506040611147868287016110ed565b9150509250925092565b5f5f83601f84011261116657611165610f62565b5b8235905067ffffffffffffffff81111561118357611182610f66565b5b60208301915083602082028301111561119f5761119e610f6a565b5b9250929050565b5f5f83601f8401126111bb576111ba610f62565b5b8235905067ffffffffffffffff8111156111d8576111d7610f66565b5b6020830191508360018202830111156111f4576111f3610f6a565b5b9250929050565b5f5f5f5f5f5f5f5f60a0898b03121561121757611216610f5a565b5b5f89013567ffffffffffffffff81111561123457611233610f5e565b5b6112408b828c01611151565b985098505060206112538b828c01611087565b965050604089013567ffffffffffffffff81111561127457611273610f5e565b5b6112808b828c01610f6e565b9550955050606089013567ffffffffffffffff8111156112a3576112a2610f5e565b5b6112af8b828c016111a6565b935093505060806112c28b828c01611087565b9150509295985092959890939650565b5f602082840312156112e7576112e6610f5a565b5b5f6112f4848285016110ed565b91505092915050565b5f8115159050919050565b611311816112fd565b82525050565b5f60208201905061132a5f830184611308565b92915050565b61133981611060565b82525050565b5f6020820190506113525f830184611330565b92915050565b5f5f5f6060848603121561136f5761136e610f5a565b5b5f61137c868287016110ba565b935050602061138d86828701611087565b925050604061139e868287016110ed565b9150509250925092565b6113b1816110ce565b82525050565b5f6020820190506113ca5f8301846113a8565b92915050565b5f602082840312156113e5576113e4610f5a565b5b5f6113f284828501611087565b91505092915050565b7f4e487b71000000000000000000000000000000000000000000000000000000005f52603260045260245ffd5b5f82825260208201905092915050565b7f656d7074792061646400000000000000000000000000000000000000000000005f82015250565b5f61146c600983611428565b915061147782611438565b602082019050919050565b5f6020820190508181035f83015261149981611460565b9050919050565b7f616c7265616479206163746976650000000000000000000000000000000000005f82015250565b5f6114d4600e83611428565b91506114df826114a0565b602082019050919050565b5f6020820190508181035f830152611501816114c8565b9050919050565b7f636f6d6d69746d656e74206e6f7420666f756e640000000000000000000000005f82015250565b5f61153c601483611428565b915061154782611508565b602082019050919050565b5f6020820190508181035f83015261156981611530565b9050919050565b5f82825260208201905092915050565b5f5ffd5b82818337505050565b5f6115988385611570565b93507f07ffffffffffffffffffffffffffffffffffffffffffffffffffffffffffffff8311156115cb576115ca611580565b5b6020830292506115dc838584611584565b82840190509392505050565b5f6040820190508181035f83015261160181868861158d565b9050818103602083015261161681848661158d565b905095945050505050565b7f5265656e7472616e637947756172643a207265656e7472616e742063616c6c005f82015250565b5f611655601f83611428565b915061166082611621565b602082019050919050565b5f6020820190508181035f83015261168281611649565b9050919050565b7f616d6f756e743d300000000000000000000000000000000000000000000000005f82015250565b5f6116bd600883611428565b91506116c882611689565b602082019050919050565b5f6020820190508181035f8301526116ea816116b1565b9050919050565b7f746f6b656e3d30000000000000000000000000000000000000000000000000005f82015250565b5f611725600783611428565b9150611730826116f1565b602082019050919050565b5f6020820190508181035f83015261175281611719565b9050919050565b6117628161109b565b82525050565b5f60608201905061177b5f830186611330565b6117886020830185611330565b6117956040830184611759565b949350505050565b6117a6816112fd565b81146117b0575f5ffd5b50565b5f815190506117c18161179d565b92915050565b5f602082840312156117dc576117db610f5a565b5b5f6117e9848285016117b3565b91505092915050565b7f7472616e7366657246726f6d206661696c6564000000000000000000000000005f82015250565b5f611826601383611428565b9150611831826117f2565b602082019050919050565b5f6020820190508181035f8301526118538161181a565b9050919050565b5f819050919050565b61187461186f8261109b565b61185a565b82525050565b5f8160601b9050919050565b5f6118908261187a565b9050919050565b5f6118a182611886565b9050919050565b6118b96118b482611060565b611897565b82525050565b5f819050919050565b6118d96118d4826110ce565b6118bf565b82525050565b5f6118ea8286611863565b6020820191506118fa82856118a8565b60148201915061190a82846118c8565b602082019150819050949350505050565b7f636f6d6d69746d656e74206578697374730000000000000000000000000000005f82015250565b5f61194f601183611428565b915061195a8261191b565b602082019050919050565b5f6020820190508181035f83015261197c81611943565b9050919050565b5f6060820190506119965f830186611759565b6119a360208301856113a8565b6119b060408301846113a8565b949350505050565b7f6c656e677468206d69736d6174636800000000000000000000000000000000005f82015250565b5f6119ec600f83611428565b91506119f7826119b8565b602082019050919050565b5f6020820190508181035f830152611a19816119e0565b9050919050565b7f6e6f20636f6d6d69746d656e74730000000000000000000000000000000000005f82015250565b5f611a54600e83611428565b9150611a5f82611a20565b602082019050919050565b5f6020820190508181035f830152611a8181611a48565b9050919050565b7f746f3d30000000000000000000000000000000000000000000000000000000005f82015250565b5f611abc600483611428565b9150611ac782611a88565b602082019050919050565b5f6020820190508181035f830152611ae981611ab0565b9050919050565b5f81905092915050565b828183375f83830152505050565b5f611b138385611af0565b9350611b20838584611afa565b82840190509392505050565b5f611b38828486611b08565b91508190509392505050565b7f6f776e657268617368206d69736d6174636800000000000000000000000000005f82015250565b5f611b78601283611428565b9150611b8382611b44565b602082019050919050565b5f6020820190508181035f830152611ba581611b6c565b9050919050565b7f636f6d6d69746d656e74207370656e74000000000000000000000000000000005f82015250565b5f611be0601083611428565b9150611beb82611bac565b602082019050919050565b5f6020820190508181035f830152611c0d81611bd4565b9050919050565b7f4e487b71000000000000000000000000000000000000000000000000000000005f52601160045260245ffd5b5f611c4b8261109b565b9150611c568361109b565b9250828201905080821115611c6e57611c6d611c14565b5b92915050565b7f746f74616c3d30000000000000000000000000000000000000000000000000005f82015250565b5f611ca8600783611428565b9150611cb382611c74565b602082019050919050565b5f6020820190508181035f830152611cd581611c9c565b9050919050565b5f604082019050611cef5f830185611330565b611cfc6020830184611759565b9392505050565b7f7472616e73666572206661696c656400000000000000000000000000000000005f82015250565b5f611d37600f83611428565b9150611d4282611d03565b602082019050919050565b5f6020820190508181035f830152611d6481611d2b565b9050919050565b5f604082019050611d7e5f830185611759565b611d8b60208301846113a8565b939250505056fea2646970667358221220ce0aecd63f289b0c6a6213687c2976547d8ef7af3f0b92948b278c51a3c43fc364736f6c634300081c0033",
  "linkReferences": {},
  "deployedLinkReferences": {},
  "immutableReferences": {},
  "inputSourceName": "project/contracts/ExecSwap.sol",
  "buildInfoId": "solc-0_8_28-80cf8e18b9e9cdf6c17e4037595ecab6ea3e4600"
}